{
  "_format": "hh-sol-artifact-1",
  "contractName": "SessionPoolFactory",
  "sourceName": "contracts/SessionPoolFactory.sol",
  "abi": [
    {
      "anonymous": false,
      "inputs": [
        {
          "indexed": true,
          "internalType": "address",
          "name": "poolAddress",
          "type": "address"
        },
        {
          "indexed": false,
          "internalType": "string",
          "name": "sessionId",
          "type": "string"
        },
        {
          "indexed": true,
          "internalType": "address",
          "name": "lecturer",
          "type": "address"
        },
        {
          "indexed": false,
          "internalType": "uint256",
          "name": "goalAmount",
          "type": "uint256"
        },
        {
          "indexed": false,
          "internalType": "uint256",
          "name": "deadline",
          "type": "uint256"
        }
      ],
      "name": "PoolCreated",
      "type": "event"
    },
    {
      "inputs": [
        {
          "internalType": "uint256",
          "name": "",
          "type": "uint256"
        }
      ],
      "name": "allPools",
      "outputs": [
        {
          "internalType": "address",
          "name": "",
          "type": "address"
        }
      ],
      "stateMutability": "view",
      "type": "function"
    },
    {
      "inputs": [
        {
          "internalType": "string",
          "name": "sessionId",
          "type": "string"
        },
        {
          "internalType": "uint256",
          "name": "goalAmount",
          "type": "uint256"
        },
        {
          "internalType": "uint256",
          "name": "durationInHours",
          "type": "uint256"
        }
      ],
      "name": "createPool",
      "outputs": [
        {
          "internalType": "address",
          "name": "",
          "type": "address"
        }
      ],
      "stateMutability": "nonpayable",
      "type": "function"
    },
    {
      "inputs": [],
      "name": "getAllPools",
      "outputs": [
        {
          "internalType": "address[]",
          "name": "",
          "type": "address[]"
        }
      ],
      "stateMutability": "view",
      "type": "function"
    },
    {
      "inputs": [
        {
          "internalType": "string",
          "name": "sessionId",
          "type": "string"
        }
      ],
      "name": "getPoolAddress",
      "outputs": [
        {
          "internalType": "address",
          "name": "",
          "type": "address"
        }
      ],
      "stateMutability": "view",
      "type": "function"
    },
    {
      "inputs": [],
      "name": "getPoolCount",
      "outputs": [
        {
          "internalType": "uint256",
          "name": "",
          "type": "uint256"
        }
      ],
      "stateMutability": "view",
      "type": "function"
    },
    {
      "inputs": [
        {
          "internalType": "string",
          "name": "sessionId",
          "type": "string"
        }
      ],
      "name": "poolExists",
      "outputs": [
        {
          "internalType": "bool",
          "name": "",
          "type": "bool"
        }
      ],
      "stateMutability": "view",
      "type": "function"
    },
    {
      "inputs": [
        {
          "internalType": "string",
          "name": "",
          "type": "string"
        }
      ],
      "name": "sessionPools",
      "outputs": [
        {
          "internalType": "address",
          "name": "",
          "type": "address"
        }
      ],
      "stateMutability": "view",
      "type": "function"
    }
  ],
  "bytecode": "0x608060405234801561001057600080fd5b50611a74806100206000396000f3fe60806040523480156200001157600080fd5b5060043610620000875760003560e01c80638eec5d7011620000625780638eec5d70146200011f5780639b6c52831462000131578063d88ff1f41462000148578063daa74181146200016157600080fd5b806341d1de97146200008c57806347df9bf114620000c05780636765020814620000e8575b600080fd5b620000a36200009d36600462000495565b62000178565b6040516001600160a01b0390911681526020015b60405180910390f35b620000d7620000d13660046200055a565b620001a3565b6040519015158152602001620000b7565b620000a3620000f93660046200055a565b80516020818301810180516000825292820191909301209152546001600160a01b031681565b600154604051908152602001620000b7565b620000a3620001423660046200059b565b620001e2565b62000152620003f1565b604051620000b79190620005ed565b620000a3620001723660046200055a565b62000455565b600181815481106200018957600080fd5b6000918252602090912001546001600160a01b0316905081565b6000806001600160a01b0316600083604051620001c1919062000662565b908152604051908190036020019020546001600160a01b0316141592915050565b6000808451116200023a5760405162461bcd60e51b815260206004820152601a60248201527f53657373696f6e2049442063616e6e6f7420626520656d70747900000000000060448201526064015b60405180910390fd5b60006001600160a01b031660008560405162000257919062000662565b908152604051908190036020019020546001600160a01b031614620002cb5760405162461bcd60e51b8152602060048201526024808201527f506f6f6c20616c72656164792065786973747320666f7220746869732073657360448201526339b4b7b760e11b606482015260840162000231565b600033858585604051620002df9062000487565b620002ee9493929190620006ae565b604051809103906000f0801580156200030b573d6000803e3d6000fd5b50905060008190508060008760405162000326919062000662565b90815260405190819003602001902080546001600160a01b039283166001600160a01b0319918216179091556001805480820182556000919091527fb10e2d527612073b26eecdfd717e6a320cf44b4afac2b0732d9fcbe2b7fa0cf6018054928416929091168217905533907fc93add1db275397f1aa976fd9f8d4d395e0abcfcc76bfc5150fea841539d41f78888620003c389610e10620006fd565b620003cf90426200071d565b604051620003e09392919062000733565b60405180910390a395945050505050565b606060018054806020026020016040519081016040528092919081815260200182805480156200044b57602002820191906000526020600020905b81546001600160a01b031681526001909101906020018083116200042c575b5050505050905090565b6000808260405162000468919062000662565b908152604051908190036020019020546001600160a01b031692915050565b6112e4806200075b83390190565b600060208284031215620004a857600080fd5b5035919050565b634e487b7160e01b600052604160045260246000fd5b600082601f830112620004d757600080fd5b813567ffffffffffffffff80821115620004f557620004f5620004af565b604051601f8301601f19908116603f01168101908282118183101715620005205762000520620004af565b816040528381528660208588010111156200053a57600080fd5b836020870160208301376000602085830101528094505050505092915050565b6000602082840312156200056d57600080fd5b813567ffffffffffffffff8111156200058557600080fd5b6200059384828501620004c5565b949350505050565b600080600060608486031215620005b157600080fd5b833567ffffffffffffffff811115620005c957600080fd5b620005d786828701620004c5565b9660208601359650604090950135949350505050565b6020808252825182820181905260009190848201906040850190845b81811015620006305783516001600160a01b03168352928401929184019160010162000609565b50909695505050505050565b60005b83811015620006595781810151838201526020016200063f565b50506000910152565b60008251620006768184602087016200063c565b9190910192915050565b600081518084526200069a8160208601602086016200063c565b601f01601f19169290920160200192915050565b6001600160a01b0385168152608060208201819052600090620006d49083018662000680565b6040830194909452506060015292915050565b634e487b7160e01b600052601160045260246000fd5b8082028115828204841417620007175762000717620006e7565b92915050565b80820180821115620007175762000717620006e7565b60608152600062000748606083018662000680565b6020830194909452506040015291905056fe60806040523480156200001157600080fd5b50604051620012e4380380620012e48339810160408190526200003491620001a1565b6001600160a01b038416620000905760405162461bcd60e51b815260206004820152601860248201527f496e76616c6964206c656374757265722061646472657373000000000000000060448201526064015b60405180910390fd5b60008211620000e25760405162461bcd60e51b815260206004820152601c60248201527f476f616c20616d6f756e74206d75737420626520706f73697469766500000000604482015260640162000087565b60008111620001345760405162461bcd60e51b815260206004820152601960248201527f4475726174696f6e206d75737420626520706f73697469766500000000000000604482015260640162000087565b600080546001600160a01b0319166001600160a01b03861617905560016200015d848262000336565b5060028290556200017181610e1062000418565b6200017d904262000438565b600355506200044e92505050565b634e487b7160e01b600052604160045260246000fd5b60008060008060808587031215620001b857600080fd5b84516001600160a01b0381168114620001d057600080fd5b602086810151919550906001600160401b0380821115620001f057600080fd5b818801915088601f8301126200020557600080fd5b8151818111156200021a576200021a6200018b565b604051601f8201601f19908116603f011681019083821181831017156200024557620002456200018b565b816040528281528b868487010111156200025e57600080fd5b600093505b8284101562000282578484018601518185018701529285019262000263565b6000928101909501919091525050506040860151606090960151949790965092505050565b600181811c90821680620002bc57607f821691505b602082108103620002dd57634e487b7160e01b600052602260045260246000fd5b50919050565b601f8211156200033157600081815260208120601f850160051c810160208610156200030c5750805b601f850160051c820191505b818110156200032d5782815560010162000318565b5050505b505050565b81516001600160401b038111156200035257620003526200018b565b6200036a81620003638454620002a7565b84620002e3565b602080601f831160018114620003a25760008415620003895750858301515b600019600386901b1c1916600185901b1785556200032d565b600085815260208120601f198616915b82811015620003d357888601518255948401946001909101908401620003b2565b5085821015620003f25787850151600019600388901b60f8161c191681555b5050505050600190811b01905550565b634e487b7160e01b600052601160045260246000fd5b808202811582820484141762000432576200043262000402565b92915050565b8082018082111562000432576200043262000402565b610e86806200045e6000396000f3fe6080604052600436106101095760003560e01c80637d3d652211610095578063af157c1911610064578063af157c19146102cb578063b564e926146102ed578063bbb851881461030c578063d5cef1331461035a578063d7bb99ba1461036f57600080fd5b80637d3d65221461024a578063939c4456146102745780639648c9f4146102895780639a82a09a146102ab57600080fd5b806329dcb0cf116100dc57806329dcb0cf1461019a5780633cb5d100146101b057806342e94c90146101e857806343cb10aa1461021557806369d895751461023557600080fd5b8063023f41471461010e5780631b55b2a81461013757806321eff7fc1461014e5780632636b94514610184575b600080fd5b34801561011a57600080fd5b5061012460045481565b6040519081526020015b60405180910390f35b34801561014357600080fd5b5061014c610377565b005b34801561015a57600080fd5b50610124610169366004610c87565b6001600160a01b031660009081526006602052604090205490565b34801561019057600080fd5b5061012460025481565b3480156101a657600080fd5b5061012460035481565b3480156101bc57600080fd5b506101d06101cb366004610cb7565b610487565b6040516001600160a01b03909116815260200161012e565b3480156101f457600080fd5b50610124610203366004610c87565b60066020526000908152604090205481565b34801561022157600080fd5b506000546101d0906001600160a01b031681565b34801561024157600080fd5b5061014c6104b1565b34801561025657600080fd5b506005546102649060ff1681565b604051901515815260200161012e565b34801561028057600080fd5b506101246106f8565b34801561029557600080fd5b5061029e610741565b60405161012e9190610cd0565b3480156102b757600080fd5b506005546102649062010000900460ff1681565b3480156102d757600080fd5b506102e06107cf565b60405161012e9190610d1e565b3480156102f957600080fd5b5060055461026490610100900460ff1681565b34801561031857600080fd5b50610321610831565b60408051978852602088019690965294860193909352901515606085015215156080840152151560a083015260c082015260e00161012e565b34801561036657600080fd5b5061014c610892565b61014c610a4a565b6000546001600160a01b031633146103d65760405162461bcd60e51b815260206004820152601b60248201527f4f6e6c79206c656374757265722063616e2063616c6c2074686973000000000060448201526064015b60405180910390fd5b600554610100900460ff16156103fe5760405162461bcd60e51b81526004016103cd90610d6b565b60055462010000900460ff161561044b5760405162461bcd60e51b8152602060048201526011602482015270105b1c9958591e4818d85b98d95b1b1959607a1b60448201526064016103cd565b6005805462ff00001916620100001790556040517f8cbd53891ca54fbd5e0e3309a32f9a006458224831c41274a5fd8d8a0d937e7190600090a1565b6007818154811061049757600080fd5b6000918252602090912001546001600160a01b0316905081565b6000546001600160a01b0316331461050b5760405162461bcd60e51b815260206004820152601b60248201527f4f6e6c79206c656374757265722063616e2063616c6c2074686973000000000060448201526064016103cd565b60055462010000900460ff16156105585760405162461bcd60e51b8152602060048201526011602482015270141bdbdb081a5cc818d85b98d95b1b1959607a1b60448201526064016103cd565b600554610100900460ff16156105805760405162461bcd60e51b81526004016103cd90610d6b565b60055460ff166105c95760405162461bcd60e51b815260206004820152601460248201527311dbd85b081b9bdd081c995858da1959081e595d60621b60448201526064016103cd565b478061060d5760405162461bcd60e51b81526020600482015260136024820152724e6f2066756e647320746f2072656c6561736560681b60448201526064016103cd565b6005805461ff001916610100179055600080546040516001600160a01b039091169083908381818185875af1925050503d8060008114610669576040519150601f19603f3d011682016040523d82523d6000602084013e61066e565b606091505b50509050806106b15760405162461bcd60e51b815260206004820152600f60248201526e151c985b9cd9995c8819985a5b1959608a1b60448201526064016103cd565b6000546040518381526001600160a01b03909116907f221c08a06b07a64803b3787861a3f276212fcccb51c2e6234077a9b8cb13047a906020015b60405180910390a25050565b600060025460000361070a5750600090565b6000600254600454606461071e9190610db1565b6107289190610dce565b905060648111610738578061073b565b60645b91505090565b6001805461074e90610df0565b80601f016020809104026020016040519081016040528092919081815260200182805461077a90610df0565b80156107c75780601f1061079c576101008083540402835291602001916107c7565b820191906000526020600020905b8154815290600101906020018083116107aa57829003601f168201915b505050505081565b6060600780548060200260200160405190810160405280929190818152602001828054801561082757602002820191906000526020600020905b81546001600160a01b03168152600190910190602001808311610809575b5050505050905090565b6000806000806000806000806000905060035442101561085c57426003546108599190610e2a565b90505b600454600254600754600554929b919a50985060ff80831698506101008304811697506201000090920490911694509092509050565b600554610100900460ff16156108ba5760405162461bcd60e51b81526004016103cd90610d6b565b60055462010000900460ff16806108e1575060035442101580156108e1575060055460ff16155b6109245760405162461bcd60e51b8152602060048201526014602482015273526566756e64206e6f7420617661696c61626c6560601b60448201526064016103cd565b33600090815260066020526040902054806109815760405162461bcd60e51b815260206004820152601960248201527f4e6f20636f6e747269627574696f6e20746f20726566756e640000000000000060448201526064016103cd565b336000818152600660205260408082208290555190919083908381818185875af1925050503d80600081146109d2576040519150601f19603f3d011682016040523d82523d6000602084013e6109d7565b606091505b5050905080610a185760405162461bcd60e51b815260206004820152600d60248201526c1499599d5b990819985a5b1959609a1b60448201526064016103cd565b60405182815233907fa171b6942063c6f2800ce40a780edce37baa2b618571b11eedd1e69e626e7d76906020016106ec565b60055462010000900460ff1615610a975760405162461bcd60e51b8152602060048201526011602482015270141bdbdb081a5cc818d85b98d95b1b1959607a1b60448201526064016103cd565b600554610100900460ff1615610abf5760405162461bcd60e51b81526004016103cd90610d6b565b6003544210610b035760405162461bcd60e51b815260206004820152601060248201526f141bdbdb081a185cc8195e1c1a5c995960821b60448201526064016103cd565b60003411610b535760405162461bcd60e51b815260206004820152601d60248201527f436f6e747269627574696f6e206d75737420626520706f73697469766500000060448201526064016103cd565b336000908152600660205260408120549003610bac57600780546001810182556000919091527fa66cc928b5edb82af9bd49922954155ab7b0942694bea4ce44661d9a8736c6880180546001600160a01b031916331790555b3360009081526006602052604081208054349290610bcb908490610e3d565b925050819055503460046000828254610be49190610e3d565b909155505060405134815233907f1bb460ccaaf70fbacfec17a376f8acbd278c1405590ffcc8ebe4b88daf4f64ad9060200160405180910390a260055460ff16158015610c35575060025460045410155b15610c85576005805460ff191660011790556004546040517ffbfd8ab7c24300fa9888cd721c8565a7da56759384781283684dcf7c7c4a846b91610c7c9190815260200190565b60405180910390a15b565b600060208284031215610c9957600080fd5b81356001600160a01b0381168114610cb057600080fd5b9392505050565b600060208284031215610cc957600080fd5b5035919050565b600060208083528351808285015260005b81811015610cfd57858101830151858201604001528201610ce1565b506000604082860101526040601f19601f8301168501019250505092915050565b6020808252825182820181905260009190848201906040850190845b81811015610d5f5783516001600160a01b031683529284019291840191600101610d3a565b50909695505050505050565b602080825260169082015275119d5b991cc8185b1c9958591e481c995b19585cd95960521b604082015260600190565b634e487b7160e01b600052601160045260246000fd5b8082028115828204841417610dc857610dc8610d9b565b92915050565b600082610deb57634e487b7160e01b600052601260045260246000fd5b500490565b600181811c90821680610e0457607f821691505b602082108103610e2457634e487b7160e01b600052602260045260246000fd5b50919050565b81810381811115610dc857610dc8610d9b565b80820180821115610dc857610dc8610d9b56fea2646970667358221220bc8944c6acd836d8382dacf585d5e9e3b9d1379fe8bc7d3013fa98c39e84852864736f6c63430008140033a26469706673582212209ad033edaadddd7ec40ea80762d9ce92f3e704a738c14e32b54f2c4a35be09e164736f6c63430008140033",
  "linkReferences": {},
  "deployedLinkReferences": {}
}